{
  "_format": "hh-sol-artifact-1",
  "contractName": "FIDOAccountFactory2",
  "sourceName": "contracts/P256/FIDOAccountFactory2.sol",
  "abi": [
    {
      "inputs": [
        {
          "internalType": "contract IEntryPoint",
          "name": "_entryPoint",
          "type": "address"
        },
        {
          "internalType": "address",
          "name": "_webAuthnVerifier",
          "type": "address"
        }
      ],
      "stateMutability": "nonpayable",
      "type": "constructor"
    },
    {
      "inputs": [],
      "name": "accountImplementation",
      "outputs": [
        {
          "internalType": "contract FIDOAccount2",
          "name": "",
          "type": "address"
        }
      ],
      "stateMutability": "view",
      "type": "function"
    },
    {
      "inputs": [
        {
          "internalType": "bytes",
          "name": "anPubkCoordinates",
          "type": "bytes"
        },
        {
          "internalType": "uint256",
          "name": "salt",
          "type": "uint256"
        }
      ],
      "name": "createAccount",
      "outputs": [
        {
          "internalType": "contract FIDOAccount2",
          "name": "ret",
          "type": "address"
        }
      ],
      "stateMutability": "nonpayable",
      "type": "function"
    },
    {
      "inputs": [
        {
          "internalType": "bytes",
          "name": "anPubkCoordinates",
          "type": "bytes"
        },
        {
          "internalType": "uint256",
          "name": "salt",
          "type": "uint256"
        }
      ],
      "name": "getAddress",
      "outputs": [
        {
          "internalType": "address",
          "name": "",
          "type": "address"
        }
      ],
      "stateMutability": "view",
      "type": "function"
    }
  ],
  "bytecode": "0x60a060405234801561001057600080fd5b50604051613a93380380613a9383398101604081905261002f916100aa565b818160405161003d90610085565b6001600160a01b03928316815291166020820152604001604051809103906000f080158015610070573d6000803e3d6000fd5b506001600160a01b0316608052506100e49050565b612c0080610e9383390190565b6001600160a01b03811681146100a757600080fd5b50565b600080604083850312156100bd57600080fd5b82516100c881610092565b60208401519092506100d981610092565b809150509250929050565b608051610d8761010c6000396000818160910152818161010901526102290152610d876000f3fe60806040523480156200001157600080fd5b5060043610620000465760003560e01c80630fd8377b146200004b57806311464fbe146200008b57806394ca2cb514620000b3575b600080fd5b620000626200005c366004620003b3565b620000ca565b60405173ffffffffffffffffffffffffffffffffffffffff909116815260200160405180910390f35b620000627f000000000000000000000000000000000000000000000000000000000000000081565b62000062620000c4366004620003b3565b620001f7565b600080620000d98484620001f7565b905073ffffffffffffffffffffffffffffffffffffffff81163b80156200010357509050620001f1565b8360001b7f0000000000000000000000000000000000000000000000000000000000000000866040516024016200013b91906200050f565b604080517fffffffffffffffffffffffffffffffffffffffffffffffffffffffffffffffe08184030181529181526020820180517bffffffffffffffffffffffffffffffffffffffffffffffffffffffff167f439fab910000000000000000000000000000000000000000000000000000000017905251620001bd9062000376565b620001ca92919062000524565b8190604051809103906000f5905080158015620001eb573d6000803e3d6000fd5b50925050505b92915050565b60006200033c8260001b60405180602001620002139062000376565b6020820181038252601f19601f820116604052507f0000000000000000000000000000000000000000000000000000000000000000866040516024016200025b91906200050f565b604080517fffffffffffffffffffffffffffffffffffffffffffffffffffffffffffffffe0818403018152918152602080830180517bffffffffffffffffffffffffffffffffffffffffffffffffffffffff167f439fab91000000000000000000000000000000000000000000000000000000001790529051620002e29392910162000524565b604080517fffffffffffffffffffffffffffffffffffffffffffffffffffffffffffffffe0818403018152908290526200032092916020016200055d565b6040516020818303038152906040528051906020012062000343565b9392505050565b60006200033c8383306000604051836040820152846020820152828152600b8101905060ff815360559020949350505050565b6107c1806200059183390190565b7f4e487b7100000000000000000000000000000000000000000000000000000000600052604160045260246000fd5b60008060408385031215620003c757600080fd5b823567ffffffffffffffff80821115620003e057600080fd5b818501915085601f830112620003f557600080fd5b8135818111156200040a576200040a62000384565b604051601f82017fffffffffffffffffffffffffffffffffffffffffffffffffffffffffffffffe0908116603f0116810190838211818310171562000453576200045362000384565b816040528281528860208487010111156200046d57600080fd5b826020860160208301376000602093820184015298969091013596505050505050565b60005b83811015620004ad57818101518382015260200162000493565b83811115620004bd576000848401525b50505050565b60008151808452620004dd81602086016020860162000490565b601f017fffffffffffffffffffffffffffffffffffffffffffffffffffffffffffffffe0169290920160200192915050565b6020815260006200033c6020830184620004c3565b73ffffffffffffffffffffffffffffffffffffffff83168152604060208201526000620005556040830184620004c3565b949350505050565b600083516200057181846020880162000490565b8351908301906200058781836020880162000490565b0194935050505056fe60806040526040516107c13803806107c183398101604081905261002291610321565b61002e82826000610035565b505061043e565b61003e8361006b565b60008251118061004b5750805b156100665761006483836100ab60201b6100291760201c565b505b505050565b610074816100d7565b6040516001600160a01b038216907fbc7cd75a20ee27fd9adebab32041f755214dbc6bffa90cc0225b39da2e5c2d3b90600090a250565b60606100d0838360405180606001604052806027815260200161079a602791396101a9565b9392505050565b6100ea8161022260201b6100551760201c565b6101515760405162461bcd60e51b815260206004820152602d60248201527f455243313936373a206e657720696d706c656d656e746174696f6e206973206e60448201526c1bdd08184818dbdb9d1c9858dd609a1b60648201526084015b60405180910390fd5b806101887f360894a13ba1a3210667c828492db98dca3e2076cc3735a920a3ca505d382bbc60001b61023160201b6100711760201c565b80546001600160a01b0319166001600160a01b039290921691909117905550565b6060600080856001600160a01b0316856040516101c691906103ef565b600060405180830381855af49150503d8060008114610201576040519150601f19603f3d011682016040523d82523d6000602084013e610206565b606091505b50909250905061021886838387610234565b9695505050505050565b6001600160a01b03163b151590565b90565b606083156102a357825160000361029c576001600160a01b0385163b61029c5760405162461bcd60e51b815260206004820152601d60248201527f416464726573733a2063616c6c20746f206e6f6e2d636f6e74726163740000006044820152606401610148565b50816102ad565b6102ad83836102b5565b949350505050565b8151156102c55781518083602001fd5b8060405162461bcd60e51b8152600401610148919061040b565b634e487b7160e01b600052604160045260246000fd5b60005b838110156103105781810151838201526020016102f8565b838111156100645750506000910152565b6000806040838503121561033457600080fd5b82516001600160a01b038116811461034b57600080fd5b60208401519092506001600160401b038082111561036857600080fd5b818501915085601f83011261037c57600080fd5b81518181111561038e5761038e6102df565b604051601f8201601f19908116603f011681019083821181831017156103b6576103b66102df565b816040528281528860208487010111156103cf57600080fd5b6103e08360208301602088016102f5565b80955050505050509250929050565b600082516104018184602087016102f5565b9190910192915050565b602081526000825180602084015261042a8160408501602087016102f5565b601f01601f19169190910160400192915050565b61034d8061044d6000396000f3fe60806040523661001357610011610017565b005b6100115b610027610022610074565b6100b9565b565b606061004e83836040518060600160405280602781526020016102f1602791396100dd565b9392505050565b73ffffffffffffffffffffffffffffffffffffffff163b151590565b90565b60006100b47f360894a13ba1a3210667c828492db98dca3e2076cc3735a920a3ca505d382bbc5473ffffffffffffffffffffffffffffffffffffffff1690565b905090565b3660008037600080366000845af43d6000803e8080156100d8573d6000f35b3d6000fd5b60606000808573ffffffffffffffffffffffffffffffffffffffff16856040516101079190610283565b600060405180830381855af49150503d8060008114610142576040519150601f19603f3d011682016040523d82523d6000602084013e610147565b606091505b509150915061015886838387610162565b9695505050505050565b606083156101fd5782516000036101f65773ffffffffffffffffffffffffffffffffffffffff85163b6101f6576040517f08c379a000000000000000000000000000000000000000000000000000000000815260206004820152601d60248201527f416464726573733a2063616c6c20746f206e6f6e2d636f6e747261637400000060448201526064015b60405180910390fd5b5081610207565b610207838361020f565b949350505050565b81511561021f5781518083602001fd5b806040517f08c379a00000000000000000000000000000000000000000000000000000000081526004016101ed919061029f565b60005b8381101561026e578181015183820152602001610256565b8381111561027d576000848401525b50505050565b60008251610295818460208701610253565b9190910192915050565b60208152600082518060208401526102be816040850160208701610253565b601f017fffffffffffffffffffffffffffffffffffffffffffffffffffffffffffffffe016919091016040019291505056fe416464726573733a206c6f772d6c6576656c2064656c65676174652063616c6c206661696c6564a26469706673582212207206d121ffa3833c53409418e4fa745480d0e85b53510553873d6d68cc9bcdb864736f6c634300080f0033416464726573733a206c6f772d6c6576656c2064656c65676174652063616c6c206661696c6564a2646970667358221220bef764a34313d677307f5772157180535c7202abe396deb9a3a72de3e5809ec164736f6c634300080f003360e0604052306080523480156200001557600080fd5b5060405162002c0038038062002c00833981016040819052620000389162000137565b6001600160a01b0380831660a052811660c052620000556200005d565b505062000176565b600054610100900460ff1615620000ca5760405162461bcd60e51b815260206004820152602760248201527f496e697469616c697a61626c653a20636f6e747261637420697320696e697469604482015266616c697a696e6760c81b606482015260840160405180910390fd5b60005460ff908116146200011c576000805460ff191660ff9081179091556040519081527f7f26b83ff96e1f2b6a682f133852f6798a09c465da95921460cefb38474024989060200160405180910390a15b565b6001600160a01b03811681146200013457600080fd5b50565b600080604083850312156200014b57600080fd5b825162000158816200011e565b60208401519092506200016b816200011e565b809150509250929050565b60805160a05160c0516129ff62000201600039600081816103690152818161167501526117f701526000818161031201528181610931015281816109df01528181610e4001528181610efe015281816111510152818161133d015261139f0152600081816105570152818161060c01528181610a9b01528181610b4b0152610c9401526129ff6000f3fe6080604052600436106101475760003560e01c80634f1ef286116100c0578063b90e655911610074578063c399ec8811610059578063c399ec88146103eb578063d087d28814610400578063f23a6e611461041557600080fd5b8063b90e6559146103ab578063bc197c81146103cb57600080fd5b8063b0d691fe116100a5578063b0d691fe14610303578063b3a765fa14610357578063b61d27f61461038b57600080fd5b80634f1ef286146102db57806352d1902d146102ee57600080fd5b80633a871cdd1161011757806347e1da2a116100fc57806347e1da2a146102935780634a58db19146102b35780634d44560d146102bb57600080fd5b80633a871cdd14610245578063439fab911461027357600080fd5b806223de291461015357806301ffc9a71461017a578063150b7a02146101af5780633659cfe61461022557600080fd5b3661014e57005b600080fd5b34801561015f57600080fd5b5061017861016e366004611b31565b5050505050505050565b005b34801561018657600080fd5b5061019a610195366004611be2565b61045b565b60405190151581526020015b60405180910390f35b3480156101bb57600080fd5b506101f46101ca366004611c24565b7f150b7a020000000000000000000000000000000000000000000000000000000095945050505050565b6040517fffffffff0000000000000000000000000000000000000000000000000000000090911681526020016101a6565b34801561023157600080fd5b50610178610240366004611c97565b610540565b34801561025157600080fd5b50610265610260366004611cb4565b61074a565b6040519081526020016101a6565b34801561027f57600080fd5b5061017861028e366004611e22565b610770565b34801561029f57600080fd5b506101786102ae366004611e9c565b610779565b61017861092f565b3480156102c757600080fd5b506101786102d6366004611f36565b6109d5565b6101786102e9366004611f62565b610a84565b3480156102fa57600080fd5b50610265610c7a565b34801561030f57600080fd5b507f00000000000000000000000000000000000000000000000000000000000000005b60405173ffffffffffffffffffffffffffffffffffffffff90911681526020016101a6565b34801561036357600080fd5b506103327f000000000000000000000000000000000000000000000000000000000000000081565b34801561039757600080fd5b506101786103a6366004611fb2565b610d66565b3480156103b757600080fd5b506102656103c636600461200e565b610db5565b3480156103d757600080fd5b506101f46103e6366004612027565b610dcc565b3480156103f757600080fd5b50610265610dfa565b34801561040c57600080fd5b50610265610eb1565b34801561042157600080fd5b506101f46104303660046120c5565b7ff23a6e61000000000000000000000000000000000000000000000000000000009695505050505050565b60007fffffffff0000000000000000000000000000000000000000000000000000000082167f150b7a020000000000000000000000000000000000000000000000000000000014806104ee57507fffffffff0000000000000000000000000000000000000000000000000000000082167f4e2312e000000000000000000000000000000000000000000000000000000000145b8061053a57507fffffffff0000000000000000000000000000000000000000000000000000000082167f01ffc9a700000000000000000000000000000000000000000000000000000000145b92915050565b73ffffffffffffffffffffffffffffffffffffffff7f000000000000000000000000000000000000000000000000000000000000000016300361060a576040517f08c379a000000000000000000000000000000000000000000000000000000000815260206004820152602c60248201527f46756e6374696f6e206d7573742062652063616c6c6564207468726f7567682060448201527f64656c656761746563616c6c000000000000000000000000000000000000000060648201526084015b60405180910390fd5b7f000000000000000000000000000000000000000000000000000000000000000073ffffffffffffffffffffffffffffffffffffffff1661067f7f360894a13ba1a3210667c828492db98dca3e2076cc3735a920a3ca505d382bbc5473ffffffffffffffffffffffffffffffffffffffff1690565b73ffffffffffffffffffffffffffffffffffffffff1614610722576040517f08c379a000000000000000000000000000000000000000000000000000000000815260206004820152602c60248201527f46756e6374696f6e206d7573742062652063616c6c6564207468726f7567682060448201527f6163746976652070726f787900000000000000000000000000000000000000006064820152608401610601565b61072b81610f2d565b6040805160008082526020820190925261074791839190610f35565b50565b6000610754611139565b61075e84846111da565b905061076982611295565b9392505050565b61074781611300565b610781611387565b8481148015610797575082158061079757508281145b6107fd576040517f08c379a000000000000000000000000000000000000000000000000000000000815260206004820152601360248201527f77726f6e67206172726179206c656e67746873000000000000000000000000006044820152606401610601565b60008390036108b35760005b858110156108ad5761089b8787838181106108265761082661212f565b905060200201602081019061083b9190611c97565b600085858581811061084f5761084f61212f565b9050602002810190610861919061215e565b8080601f01602080910402602001604051908101604052809392919081815260200183838082843760009201919091525061143092505050565b806108a5816121c3565b915050610809565b50610927565b60005b85811015610925576109138787838181106108d3576108d361212f565b90506020020160208101906108e89190611c97565b8686848181106108fa576108fa61212f565b9050602002013585858581811061084f5761084f61212f565b8061091d816121c3565b9150506108b6565b505b505050505050565b7f00000000000000000000000000000000000000000000000000000000000000006040517fb760faf900000000000000000000000000000000000000000000000000000000815230600482015273ffffffffffffffffffffffffffffffffffffffff919091169063b760faf99034906024016000604051808303818588803b1580156109ba57600080fd5b505af11580156109ce573d6000803e3d6000fd5b5050505050565b6109dd6114ad565b7f00000000000000000000000000000000000000000000000000000000000000006040517f205c287800000000000000000000000000000000000000000000000000000000815273ffffffffffffffffffffffffffffffffffffffff848116600483015260248201849052919091169063205c287890604401600060405180830381600087803b158015610a7057600080fd5b505af1158015610927573d6000803e3d6000fd5b73ffffffffffffffffffffffffffffffffffffffff7f0000000000000000000000000000000000000000000000000000000000000000163003610b49576040517f08c379a000000000000000000000000000000000000000000000000000000000815260206004820152602c60248201527f46756e6374696f6e206d7573742062652063616c6c6564207468726f7567682060448201527f64656c656761746563616c6c00000000000000000000000000000000000000006064820152608401610601565b7f000000000000000000000000000000000000000000000000000000000000000073ffffffffffffffffffffffffffffffffffffffff16610bbe7f360894a13ba1a3210667c828492db98dca3e2076cc3735a920a3ca505d382bbc5473ffffffffffffffffffffffffffffffffffffffff1690565b73ffffffffffffffffffffffffffffffffffffffff1614610c61576040517f08c379a000000000000000000000000000000000000000000000000000000000815260206004820152602c60248201527f46756e6374696f6e206d7573742062652063616c6c6564207468726f7567682060448201527f6163746976652070726f787900000000000000000000000000000000000000006064820152608401610601565b610c6a82610f2d565b610c7682826001610f35565b5050565b60003073ffffffffffffffffffffffffffffffffffffffff7f00000000000000000000000000000000000000000000000000000000000000001614610d41576040517f08c379a000000000000000000000000000000000000000000000000000000000815260206004820152603860248201527f555550535570677261646561626c653a206d757374206e6f742062652063616c60448201527f6c6564207468726f7567682064656c656761746563616c6c00000000000000006064820152608401610601565b507f360894a13ba1a3210667c828492db98dca3e2076cc3735a920a3ca505d382bbc90565b610d6e611387565b610daf848484848080601f01602080910402602001604051908101604052809392919081815260200183838082843760009201919091525061143092505050565b50505050565b60018160028110610dc557600080fd5b0154905081565b7fbc197c81000000000000000000000000000000000000000000000000000000005b98975050505050505050565b6040517f70a0823100000000000000000000000000000000000000000000000000000000815230600482015260009073ffffffffffffffffffffffffffffffffffffffff7f000000000000000000000000000000000000000000000000000000000000000016906370a08231906024015b602060405180830381865afa158015610e88573d6000803e3d6000fd5b505050506040513d601f19601f82011682018060405250810190610eac9190612222565b905090565b6040517f35567e1a0000000000000000000000000000000000000000000000000000000081523060048201526000602482018190529073ffffffffffffffffffffffffffffffffffffffff7f000000000000000000000000000000000000000000000000000000000000000016906335567e1a90604401610e6b565b6107476114ad565b7f4910fdfa16fed3260ed0e7147f7cc6da11a60208b5b9406d12a635614ffd91435460ff1615610f6d57610f6883611516565b505050565b8273ffffffffffffffffffffffffffffffffffffffff166352d1902d6040518163ffffffff1660e01b8152600401602060405180830381865afa925050508015610ff2575060408051601f3d9081017fffffffffffffffffffffffffffffffffffffffffffffffffffffffffffffffe0168201909252610fef91810190612222565b60015b61107e576040517f08c379a000000000000000000000000000000000000000000000000000000000815260206004820152602e60248201527f45524331393637557067726164653a206e657720696d706c656d656e7461746960448201527f6f6e206973206e6f7420555550530000000000000000000000000000000000006064820152608401610601565b7f360894a13ba1a3210667c828492db98dca3e2076cc3735a920a3ca505d382bbc811461112d576040517f08c379a000000000000000000000000000000000000000000000000000000000815260206004820152602960248201527f45524331393637557067726164653a20756e737570706f727465642070726f7860448201527f6961626c655555494400000000000000000000000000000000000000000000006064820152608401610601565b50610f68838383611620565b3373ffffffffffffffffffffffffffffffffffffffff7f000000000000000000000000000000000000000000000000000000000000000016146111d8576040517f08c379a000000000000000000000000000000000000000000000000000000000815260206004820152601c60248201527f6163636f756e743a206e6f742066726f6d20456e747279506f696e74000000006044820152606401610601565b565b6000606081806111ee61014087018761215e565b9050111561122457604051806102a00160405280610280815260200161274a6102809139915061121d82611645565b9050611279565b61123261014086018661215e565b8080601f0160208091040260200160405190810160405280939291908181526020018383808284376000920191909152509294506112769250849150869050611728565b90505b801561128a5760009250505061053a565b506001949350505050565b80156107475760405160009033907fffffffffffffffffffffffffffffffffffffffffffffffffffffffffffffffff90849084818181858888f193505050503d80600081146109ce576040519150601f19603f3d011682016040523d82523d6000602084013e6109ce565b8080602001905181019061131491906122ab565b611322906001906002611a55565b5060405173ffffffffffffffffffffffffffffffffffffffff7f000000000000000000000000000000000000000000000000000000000000000016907f12f23cb131f573cf87e6a3a262d92988d772d307929a6d4c27156aef9f634f2390600090a250565b3373ffffffffffffffffffffffffffffffffffffffff7f00000000000000000000000000000000000000000000000000000000000000001614806113ca57503330145b6111d8576040517f08c379a000000000000000000000000000000000000000000000000000000000815260206004820181905260248201527f6163636f756e743a206e6f74204f776e6572206f7220456e747279506f696e746044820152606401610601565b6000808473ffffffffffffffffffffffffffffffffffffffff16848460405161145991906122f3565b60006040518083038185875af1925050503d8060008114611496576040519150601f19603f3d011682016040523d82523d6000602084013e61149b565b606091505b5091509150816109ce57805160208201fd5b3330146111d8576040517f08c379a000000000000000000000000000000000000000000000000000000000815260206004820152600a60248201527f6f6e6c79206f776e6572000000000000000000000000000000000000000000006044820152606401610601565b73ffffffffffffffffffffffffffffffffffffffff81163b6115ba576040517f08c379a000000000000000000000000000000000000000000000000000000000815260206004820152602d60248201527f455243313936373a206e657720696d706c656d656e746174696f6e206973206e60448201527f6f74206120636f6e7472616374000000000000000000000000000000000000006064820152608401610601565b7f360894a13ba1a3210667c828492db98dca3e2076cc3735a920a3ca505d382bbc80547fffffffffffffffffffffffff00000000000000000000000000000000000000001673ffffffffffffffffffffffffffffffffffffffff92909216919091179055565b61162983611839565b6000825111806116365750805b15610f6857610daf8383611886565b600080600080600080600080888060200190518101906116659190612389565b96509650965096509650965096507f000000000000000000000000000000000000000000000000000000000000000073ffffffffffffffffffffffffffffffffffffffff1663e60b5704888888888888886040518863ffffffff1660e01b81526004016116d897969594939291906124bd565b6020604051808303816000875af11580156116f7573d6000803e3d6000fd5b505050506040513d601f19601f8201168201806040525081019061171b9190612544565b9998505050505050505050565b600080600080600080600061173c896118ab565b955095509550955095509550878361175390612566565b146117ba576040517f08c379a000000000000000000000000000000000000000000000000000000000815260206004820152601f60248201527f6368616c6c656e6765202620757365724f7048617368206d69736d61746368006044820152606401610601565b6040517fe60b570400000000000000000000000000000000000000000000000000000000815273ffffffffffffffffffffffffffffffffffffffff7f0000000000000000000000000000000000000000000000000000000000000000169063e60b5704906116d8908990899089908990899089906001906004016125ab565b61184281611516565b60405173ffffffffffffffffffffffffffffffffffffffff8216907fbc7cd75a20ee27fd9adebab32041f755214dbc6bffa90cc0225b39da2e5c2d3b90600090a250565b60606107698383604051806060016040528060278152602001612723602791396118e4565b6000606080606060006118bc611a93565b868060200190518101906118d0919061265c565b949c939b5091995097509550909350915050565b60606000808573ffffffffffffffffffffffffffffffffffffffff168560405161190e91906122f3565b600060405180830381855af49150503d8060008114611949576040519150601f19603f3d011682016040523d82523d6000602084013e61194e565b606091505b509150915061195f86838387611969565b9695505050505050565b606083156119ff5782516000036119f85773ffffffffffffffffffffffffffffffffffffffff85163b6119f8576040517f08c379a000000000000000000000000000000000000000000000000000000000815260206004820152601d60248201527f416464726573733a2063616c6c20746f206e6f6e2d636f6e74726163740000006044820152606401610601565b5081611a09565b611a098383611a11565b949350505050565b815115611a215781518083602001fd5b806040517f08c379a0000000000000000000000000000000000000000000000000000000008152600401610601919061270f565b8260028101928215611a83579160200282015b82811115611a83578251825591602001919060010190611a68565b50611a8f929150611ab1565b5090565b60405180604001604052806002906020820280368337509192915050565b5b80821115611a8f5760008155600101611ab2565b73ffffffffffffffffffffffffffffffffffffffff8116811461074757600080fd5b60008083601f840112611afa57600080fd5b50813567ffffffffffffffff811115611b1257600080fd5b602083019150836020828501011115611b2a57600080fd5b9250929050565b60008060008060008060008060c0898b031215611b4d57600080fd5b8835611b5881611ac6565b97506020890135611b6881611ac6565b96506040890135611b7881611ac6565b955060608901359450608089013567ffffffffffffffff80821115611b9c57600080fd5b611ba88c838d01611ae8565b909650945060a08b0135915080821115611bc157600080fd5b50611bce8b828c01611ae8565b999c989b5096995094979396929594505050565b600060208284031215611bf457600080fd5b81357fffffffff000000000000000000000000000000000000000000000000000000008116811461076957600080fd5b600080600080600060808688031215611c3c57600080fd5b8535611c4781611ac6565b94506020860135611c5781611ac6565b935060408601359250606086013567ffffffffffffffff811115611c7a57600080fd5b611c8688828901611ae8565b969995985093965092949392505050565b600060208284031215611ca957600080fd5b813561076981611ac6565b600080600060608486031215611cc957600080fd5b833567ffffffffffffffff811115611ce057600080fd5b84016101608187031215611cf357600080fd5b95602085013595506040909401359392505050565b7f4e487b7100000000000000000000000000000000000000000000000000000000600052604160045260246000fd5b604051601f82017fffffffffffffffffffffffffffffffffffffffffffffffffffffffffffffffe016810167ffffffffffffffff81118282101715611d7e57611d7e611d08565b604052919050565b600067ffffffffffffffff821115611da057611da0611d08565b50601f017fffffffffffffffffffffffffffffffffffffffffffffffffffffffffffffffe01660200190565b600082601f830112611ddd57600080fd5b8135611df0611deb82611d86565b611d37565b818152846020838601011115611e0557600080fd5b816020850160208301376000918101602001919091529392505050565b600060208284031215611e3457600080fd5b813567ffffffffffffffff811115611e4b57600080fd5b611a0984828501611dcc565b60008083601f840112611e6957600080fd5b50813567ffffffffffffffff811115611e8157600080fd5b6020830191508360208260051b8501011115611b2a57600080fd5b60008060008060008060608789031215611eb557600080fd5b863567ffffffffffffffff80821115611ecd57600080fd5b611ed98a838b01611e57565b90985096506020890135915080821115611ef257600080fd5b611efe8a838b01611e57565b90965094506040890135915080821115611f1757600080fd5b50611f2489828a01611e57565b979a9699509497509295939492505050565b60008060408385031215611f4957600080fd5b8235611f5481611ac6565b946020939093013593505050565b60008060408385031215611f7557600080fd5b8235611f8081611ac6565b9150602083013567ffffffffffffffff811115611f9c57600080fd5b611fa885828601611dcc565b9150509250929050565b60008060008060608587031215611fc857600080fd5b8435611fd381611ac6565b935060208501359250604085013567ffffffffffffffff811115611ff657600080fd5b61200287828801611ae8565b95989497509550505050565b60006020828403121561202057600080fd5b5035919050565b60008060008060008060008060a0898b03121561204357600080fd5b883561204e81611ac6565b9750602089013561205e81611ac6565b9650604089013567ffffffffffffffff8082111561207b57600080fd5b6120878c838d01611e57565b909850965060608b01359150808211156120a057600080fd5b6120ac8c838d01611e57565b909650945060808b0135915080821115611bc157600080fd5b60008060008060008060a087890312156120de57600080fd5b86356120e981611ac6565b955060208701356120f981611ac6565b94506040870135935060608701359250608087013567ffffffffffffffff81111561212357600080fd5b611f2489828a01611ae8565b7f4e487b7100000000000000000000000000000000000000000000000000000000600052603260045260246000fd5b60008083357fffffffffffffffffffffffffffffffffffffffffffffffffffffffffffffffe184360301811261219357600080fd5b83018035915067ffffffffffffffff8211156121ae57600080fd5b602001915036819003821315611b2a57600080fd5b60007fffffffffffffffffffffffffffffffffffffffffffffffffffffffffffffffff820361221b577f4e487b7100000000000000000000000000000000000000000000000000000000600052601160045260246000fd5b5060010190565b60006020828403121561223457600080fd5b5051919050565b600082601f83011261224c57600080fd5b6040516040810181811067ffffffffffffffff8211171561226f5761226f611d08565b806040525080604084018581111561228657600080fd5b845b818110156122a0578051835260209283019201612288565b509195945050505050565b6000604082840312156122bd57600080fd5b610769838361223b565b60005b838110156122e25781810151838201526020016122ca565b83811115610daf5750506000910152565b600082516123058184602087016122c7565b9190910192915050565b80517fff000000000000000000000000000000000000000000000000000000000000008116811461233f57600080fd5b919050565b600082601f83011261235557600080fd5b8151612363611deb82611d86565b81815284602083860101111561237857600080fd5b611a098260208301602087016122c7565b6000806000806000806000610120888a0312156123a557600080fd5b6123ae8861230f565b9650602088015167ffffffffffffffff808211156123cb57600080fd5b6123d78b838c01612344565b975060408a01519150808211156123ed57600080fd5b6123f98b838c01612344565b965060608a015191508082111561240f57600080fd5b5061241c8a828b01612344565b945050608088015192506124338960a08a0161223b565b91506124428960e08a0161223b565b905092959891949750929550565b600081518084526124688160208601602086016122c7565b601f017fffffffffffffffffffffffffffffffffffffffffffffffffffffffffffffffe0169290920160200192915050565b8060005b6002811015610daf57815184526020938401939091019060010161249e565b60006101207fff000000000000000000000000000000000000000000000000000000000000008a1683528060208401526124f98184018a612450565b9050828103604084015261250d8189612450565b905082810360608401526125218188612450565b91505084608083015261253760a083018561249a565b610dee60e083018461249a565b60006020828403121561255657600080fd5b8151801515811461076957600080fd5b805160208083015191908110156125a5577fffffffffffffffffffffffffffffffffffffffffffffffffffffffffffffffff8160200360031b1b821691505b50919050565b60006101207fff000000000000000000000000000000000000000000000000000000000000008a168352602081818501526125e88285018b612450565b915083820360408501526125fc828a612450565b915083820360608501526126108289612450565b925086608085015261262560a085018761249a565b60e0840191508460005b600281101561264c5781548452928201926001918201910161262f565b5050505098975050505050505050565b60008060008060008060e0878903121561267557600080fd5b61267e8761230f565b9550602087015167ffffffffffffffff8082111561269b57600080fd5b6126a78a838b01612344565b965060408901519150808211156126bd57600080fd5b6126c98a838b01612344565b955060608901519150808211156126df57600080fd5b506126ec89828a01612344565b935050608087015191506127038860a0890161223b565b90509295509295509295565b602081526000610769602083018461245056fe416464726573733a206c6f772d6c6576656c2064656c65676174652063616c6c206661696c6564050000000000000000000000000000000000000000000000000000000000000000000000000000000000000000000000000000000000000000000000000001200000000000000000000000000000000000000000000000000000000000000180000000000000000000000000000000000000000000000000000000000000024000000000000000000000000000000000000000000000000000000000000000249b0a3397f24677f039e5c96a937f1c94a4e5e19acd814d2ac1eb386e3a926909591ea7ffad59ac0448094c15816bbd3a2129dcb689b4511fbf48aa96ad3ea1c3f8fb00bd6e1c5f399e39c0db7deaa8049040f3fcf07eae4ec4f6ccc76f90386cd2728f856da05c444ca8ba77bc5fb4b1618d56f627c4aa203af8ef2f226cc288000000000000000000000000000000000000000000000000000000000000002549960de5880e8c687434170f6476605b8fe4aeb9a28632c7995cf3ba831d9763050000000000000000000000000000000000000000000000000000000000000000000000000000000000000000000000000000000000000000000000000000867b2274797065223a22776562617574686e2e676574222c226368616c6c656e6765223a227a4c5f6d674c314a32546e6a43415449776b76467a5861596d6c3855356d73644a5365664a4668724a3477222c226f726967696e223a22687474703a2f2f6c6f63616c686f73743a33303030222c2263726f73734f726967696e223a66616c73657d00000000000000000000000000000000000000000000000000000000000000000000000000000000000000000000000000000000000000000020ccbfe680bd49d939e30804c8c24bc5cd76989a5f14e66b1d25279f24586b278ca2646970667358221220bad551d8baa4e540a1160d19babd78c57ce05c292fd439ed08f999ad8867e21b64736f6c634300080f0033",
  "linkReferences": {},
  "deployedLinkReferences": {}
}